:020000040000FA
:1000000080311E28FF3FFF3F80312000111C09284E
:100010000A281D280130DA070030DB3D0C1C1128AE
:1000200012281528D801D9011A280130D807003024
:10003000D93D1A2811101D281D2809008801853175
:10004000E62D81316929813184298131A0298131CD
:10005000BC298131D8298131F4298231112A823198
:100060001C2A85311225803120005C1C3828392853
:100070003D288231FC2280313D282000D801D90161
:10008000412801302000DD070030DE3D5D080339E6
:10009000F7007708E4006408203E860087010030FE
:1000A0000C1A013081006408243E8600870100306C
:1000B0008E19013081006408283E860087010030D7
:1000C0008E1B0130810064082C3E860087010030C1
:1000D0000E18013081006408303E86008701003030
:1000E0000E19013081006408343E8600870100301B
:1000F0008D1A0130810000308C1C0130F70064083B
:10010000383E860087017708810000300C1C0130E2
:10011000F70064083C3E8600870177088100640888
:10012000033E0339F7007708E0006408023E033914
:10013000F7007708DF006408403E86008701003042
:100140008C19013081006408443E8600870100302C
:100150000E1B013081006408483E86008701003094
:100160008D1B0130810064084C3E86008701003001
:100170008E18013081006408503E860087010030EF
:100180000D1A013081006408543E8600870100305A
:100190000D1B01308100E20108306202031CD128EE
:1001A000D228D4283E2A3E2AE3010230F7007708FD
:1001B000E10004306102031CDE28DF28E128032966
:1001C00003296208F7000230F735890BE428203054
:1001D0007707F8006103FF3A6407043E03397807A4
:1001E000F9007908860087010108FA007A08E30718
:1001F0000130F7007708E10704306102031C012990
:100200000229E12803296308023A031D0829092964
:10021000332A6208F7000230F735890B0C292030A9
:100220007707F80060087807F900790886008701E9
:100230008108031D1C291D29332A6208F70002309A
:10024000F735890B202920307707F80064087807F4
:10025000F9007908860087018108031D30293129BA
:10026000332AE30106306202031837293829272A86
:10027000E10104306102031C3E293F2941295F2925
:100280005F296208F7000230F735890B44294030B6
:100290007707F80061087807F90079088600870178
:1002A0000108FA007A08E3070130F7007708E10750
:1002B00004306102031C5D295E2941295F29023057
:1002C0006302031864296529272AE301272A272ABC
:1002D000272A6308031D6D2979296F296F29111EAB
:1002E000722973296F297429573023009A00332A01
:1002F00079292000111E7D297E2979297F295130F5
:1003000023009A00332A332A20006308031D892919
:1003100095298B298B29111E8E298F298B299029AC
:10032000413023009A00332A95292000111E992973
:100330009A2995299B29533023009A00332A332A7E
:1003400020006308031DA529B129A729A729111E8B
:10035000AA29AB29A729AC295A3023009A00332AAD
:10036000B1292000111EB529B629B129B729583065
:1003700023009A00332A332A20006308031DC12971
:10038000CD29C329C329111EC629C729C329C829B4
:10039000523023009A00332ACD292000111ED12982
:1003A000D229CD29D329453023009A00332A332A74
:1003B00020006308031DDD29E929DF29DF29111E3B
:1003C000E229E329DF29E429463023009A00332A71
:1003D000E9292000111EED29EE29E929EF294430F1
:1003E00023009A00332A332A20006308031DF929C9
:1003F000052AFB29FB29111EFE29FF29FB29002ABA
:10040000563023009A00332A052A2000111E092A9B
:100410000A2A052A0B2A433023009A00332A332A5A
:10042000112A2000111E152A162A112A172A5430C3
:1004300023009A00332A1C2A2000111E202A212A78
:100440001C2A222A473023009A00332A332A20000C
:1004500062088400083004020318332A803104350E
:10046000213E8200332A0130F70077082000E2079E
:1004700008306202031C3D2A3E2AD4285C1C412A13
:10048000422AD92A0C1D452A462A492ADA01DB01CB
:10049000562A8E1E4C2A4D2A562ADA01DB010230DA
:1004A000F7007708DC008C16562A562A0B305B02C0
:1004B000B93003195A0203185E2A5F2A682A0030ED
:1004C0005902073003195802031C672A682A412879
:1004D0000C1D6B2A6C2AB72A6E2A6E2A111E712AED
:1004E000722A6E2A732A243023009A00772A200069
:1004F000111E7B2A7C2A772A7D2A243023009A0029
:10050000812A2000111E852A862A812A872A2430E2
:1005100023009A001030F0002730F1008531CF25FC
:100520008031922A2000111E962A972A922A982A10
:100530004B3023009A009C2A2000111EA02AA12AD9
:100540009C2AA22A2C3023009A00A62A2000111EE1
:10055000AA2AAB2AA62AAC2A0D3023009A003030F2
:10056000F0007530F1008531CF258031B72A853113
:10057000B3258031BB2A20000C1CBF2AC02ABB2A0D
:10058000C12A1430F0000030F1008531CF258031D0
:10059000C92A20000C1CCD2ACE2AD42A0C1DD12A0F
:1005A000D22AC92AD42AD42A853112258031412859
:1005B00041288E1ADC2ADD2A41288531B325803175
:1005C0001430F0000030F1008531CF258031E82A69
:1005D00020000C1CEC2AED2AF32A8E1EF02AF12AA8
:1005E000E82AF32AF32A853112258031412841284F
:1005F0004128412880311E2820008C12F501F60187
:100600007608803AFF0080307F02031D092B0530F9
:100610007502031C0C2B0D2B0F2B292B292B303093
:10062000F0007530F1008531CF2582310130F507BA
:100630000030F63D7608803AFF0080307F02031DCF
:10064000232B05307502031C262B272B0F2B292B60
:10065000292B2000111E2D2B2E2B292B2F2B243044
:1006600023009A00332B2000111E372B382B332BFD
:10067000392B243023009A003D2B2000111E412BE2
:10068000422B3D2B432B243023009A001030F000E6
:100690002730F1008531CF2582314E2B2000111EED
:1006A000522B532B4E2B542B533023009A00582B94
:1006B0002000111E5C2B5D2B582B5E2B2D30230050
:1006C0009A00622B2000111E662B672B622B682B71
:1006D0002C3023009A006C2B2000111E702B712BE4
:1006E0006C2B722B423023009A00762B2000111EB7
:1006F0007A2B7B2B762B7C2B543023009A00802B7B
:100700002000111E842B852B802B862B6430230028
:100710009A008A2B2000111E8E2B8F2B8A2B902B58
:10072000693023009A00942B2000111E982B992BDE
:10073000942B9A2B613023009A009E2B2000111ECF
:10074000A22BA32B9E2BA42B6C3023009A00A82B4A
:100750002000111EAC2BAD2BA82BAE2B7330230029
:100760009A00B22B2000111EB62BB72BB22BB82B40
:100770000D3023009A001030F0002730F100853151
:10078000CF258231C32B2000111EC72BC82BC32BB2
:10079000C92B533023009A00CD2B2000111ED12BE2
:1007A000D22BCD2BD32B4D3023009A00D72B2000FA
:1007B000111EDB2BDC2BD72BDD2B2C3023009A00DA
:1007C000E12B2000111EE52BE62BE12BE72B30302F
:1007D00023009A00EB2B2000111EEF2BF02BEB2BAC
:1007E000F12B0D3023009A001030F0002730F1007B
:1007F0008531CF258231FC2B2000111E002C012CCD
:10080000FC2B022C533023009A00062C2000111ED2
:100810000A2C0B2C062C0C2C7E3023009A00102C5A
:100820002000111E142C152C102C162C2C302300FB
:100830009A001A2C2000111E1E2C1F2C1A2C202C62
:10084000303023009A00242C2000111E282C292C43
:10085000242C2A2C0D3023009A001030F000273071
:10086000F1008531CF25823120000C18382C392C2D
:10087000922C3B2C3B2C111E3E2C3F2C3B2C402C15
:10088000533023009A00442C2000111E482C492C80
:10089000442C4A2C573023009A004E2C2000111E65
:1008A000522C532C4E2C542C2C3023009A00582CB4
:1008B0002000111E5C2C5D2C582C5E2C3030230047
:1008C0009A00622C2000111E662C672C622C682C6A
:1008D000303023009A006C2C2000111E702C712CDB
:1008E0006C2C722C303023009A00762C2000111EC4
:1008F0007A2C7B2C762C7C2C303023009A00802C98
:100900002000111E842C852C802C862C0D30230079
:100910009A001030F0002730F1008531CF25823168
:10092000EA2C922C2000111E962C972C922C982C9D
:10093000533023009A009C2C2000111EA02CA12CC7
:100940009C2CA22C573023009A00A62C2000111EAC
:10095000AA2CAB2CA62CAC2C2C3023009A00B02C4B
:100960002000111EB42CB52CB02CB62C3030230036
:100970009A00BA2C2000111EBE2CBF2CBA2CC02C01
:10098000333023009A00C42C2000111EC82CC92C1F
:10099000C42CCA2C323023009A00CE2C2000111E09
:1009A000D22CD32CCE2CD42C303023009A00D82C2F
:1009B0002000111EDC2CDD2CD82CDE2C0D30230069
:1009C0009A001030F0002730F1008531CF258231B8
:1009D000EA2CEA2C2000111EEE2CEF2CEA2CF02C35
:1009E000523023009A00F42C2000111EF82CF92C10
:1009F000F42CFA2C2C3023009A00FE2C2000111E1F
:100A0000022D032DFE2C042D313023009A00082DD9
:100A10002000111E0C2D0D2D082D0E2D0D30230044
:100A20009A00080021009913190887397038990035
:100A300022009D171D152000DD01DE01F4010830A4
:100A40007402031C242D252D272D6F2D6F2DF301EE
:100A500004307302031C2D2D2E2D302D642D642D9A
:100A60007408F0000230F035890B332D2030700708
:100A7000F10073087107F200720886008701810196
:100A80000314810D063074020318472D482D592D8B
:100A90007408F0000230F035890B4B2D40307007A0
:100AA000F10073087107F200720886008701810166
:100AB000592D0130F0007008F30704307302031C55
:100AC000622D632D302D642D0130F0007008F40785
:100AD00008307402031C6D2D6E2D272D6F2D200004
:100AE000DA01DB01D801D9013F30980518169816B4
:100AF00098119913970196011814210011140B17DE
:100B00008B1723008C018D018E01DF3027008E00B2
:100B1000210095131B3024008C00F0308D00DF3055
:100B20008E00DF3021008C00FF308D00FF308E0002
:100B300020008E1E9C2D9D2DA32D0230F0007008EC
:100B4000DC008C16A82DDC010314DC0D8C12A82D02
:100B500023009C010C309B001E119F111E129D173B
:100B60001E139E16080087302100990520001810DA
:100B7000210011100B138B1323009D139E120130C3
:100B800024008C008D018E01FF3021008C00FA3092
:100B900023008C00FF308D00DF308E000800F30151
:100BA000F401D62D0130F3070030F43D7408803A8B
:100BB000F2007108803A7202031DE02D7008730282
:100BC000031CE32DE42DD22DE52D080020308400F8
:100BD000003085003F308531F1258531200080319E
:100BE0003128640080010131890BF22D0034FF3F70
:100BF000FF3FFF3FFF3FFF3FFF3FFF3FFF3FFF3F05
:100C0000FF3FFF3FFF3FFF3FFF3FFF3FFF3FFF3FF4
:100C1000FF3FFF3FFF3FFF3FFF3FFF3FFF3FFF3FE4
:100C2000FF3FFF3FFF3FFF3FFF3FFF3FFF3FFF3FD4
:020000040001F9
:04000E0084C9FFDCC6
:00000001FF
